{
  "_format": "hh-sol-artifact-1",
  "contractName": "AnchorRegistry",
  "sourceName": "contracts/AnchorRegistry.sol",
  "abi": [
    {
      "anonymous": false,
      "inputs": [
        {
          "indexed": true,
          "internalType": "string",
          "name": "id",
          "type": "string"
        },
        {
          "indexed": false,
          "internalType": "string",
          "name": "eventType",
          "type": "string"
        },
        {
          "indexed": false,
          "internalType": "bytes32",
          "name": "hash",
          "type": "bytes32"
        },
        {
          "indexed": false,
          "internalType": "uint256",
          "name": "timestamp",
          "type": "uint256"
        }
      ],
      "name": "HashAnchored",
      "type": "event"
    },
    {
      "inputs": [
        {
          "internalType": "string",
          "name": "_id",
          "type": "string"
        },
        {
          "internalType": "string",
          "name": "_eventType",
          "type": "string"
        },
        {
          "internalType": "bytes32",
          "name": "_hash",
          "type": "bytes32"
        }
      ],
      "name": "anchorHash",
      "outputs": [],
      "stateMutability": "nonpayable",
      "type": "function"
    },
    {
      "inputs": [
        {
          "internalType": "string",
          "name": "_id",
          "type": "string"
        }
      ],
      "name": "getAnchors",
      "outputs": [
        {
          "components": [
            {
              "internalType": "string",
              "name": "eventType",
              "type": "string"
            },
            {
              "internalType": "bytes32",
              "name": "hash",
              "type": "bytes32"
            },
            {
              "internalType": "uint256",
              "name": "timestamp",
              "type": "uint256"
            },
            {
              "internalType": "address",
              "name": "sender",
              "type": "address"
            }
          ],
          "internalType": "struct AnchorRegistry.Anchor[]",
          "name": "",
          "type": "tuple[]"
        }
      ],
      "stateMutability": "view",
      "type": "function"
    }
  ],
  "bytecode": "0x608060405234801561001057600080fd5b50610bed806100206000396000f3fe608060405234801561001057600080fd5b50600436106100365760003560e01c806371ab99bf1461003b578063896aadb514610057575b600080fd5b610055600480360381019061005091906104dd565b610087565b005b610071600480360381019061006c9190610568565b6101d4565b60405161007e91906107be565b60405180910390f35b600060405180608001604052808481526020018381526020014281526020013373ffffffffffffffffffffffffffffffffffffffff1681525090506000846040516100d2919061081c565b9081526020016040518091039020819080600181540180825580915050600190039060005260206000209060040201600090919091909150600082015181600001908161011f9190610a3f565b50602082015181600101556040820151816002015560608201518160030160006101000a81548173ffffffffffffffffffffffffffffffffffffffff021916908373ffffffffffffffffffffffffffffffffffffffff16021790555050508360405161018b919061081c565b60405180910390207fb487fb6502ac8ea73bcfd03c4ca946688b5b3d041354ed668bd2dcaafd64e4c98484426040516101c693929190610b79565b60405180910390a250505050565b60606000826040516101e6919061081c565b9081526020016040518091039020805480602002602001604051908101604052809291908181526020016000905b82821015610342578382906000526020600020906004020160405180608001604052908160008201805461024790610862565b80601f016020809104026020016040519081016040528092919081815260200182805461027390610862565b80156102c05780601f10610295576101008083540402835291602001916102c0565b820191906000526020600020905b8154815290600101906020018083116102a357829003601f168201915b5050505050815260200160018201548152602001600282015481526020016003820160009054906101000a900473ffffffffffffffffffffffffffffffffffffffff1673ffffffffffffffffffffffffffffffffffffffff1673ffffffffffffffffffffffffffffffffffffffff168152505081526020019060010190610214565b505050509050919050565b6000604051905090565b600080fd5b600080fd5b600080fd5b600080fd5b6000601f19601f8301169050919050565b7f4e487b7100000000000000000000000000000000000000000000000000000000600052604160045260246000fd5b6103b48261036b565b810181811067ffffffffffffffff821117156103d3576103d261037c565b5b80604052505050565b60006103e661034d565b90506103f282826103ab565b919050565b600067ffffffffffffffff8211156104125761041161037c565b5b61041b8261036b565b9050602081019050919050565b82818337600083830152505050565b600061044a610445846103f7565b6103dc565b90508281526020810184848401111561046657610465610366565b5b610471848285610428565b509392505050565b600082601f83011261048e5761048d610361565b5b813561049e848260208601610437565b91505092915050565b6000819050919050565b6104ba816104a7565b81146104c557600080fd5b50565b6000813590506104d7816104b1565b92915050565b6000806000606084860312156104f6576104f5610357565b5b600084013567ffffffffffffffff8111156105145761051361035c565b5b61052086828701610479565b935050602084013567ffffffffffffffff8111156105415761054061035c565b5b61054d86828701610479565b925050604061055e868287016104c8565b9150509250925092565b60006020828403121561057e5761057d610357565b5b600082013567ffffffffffffffff81111561059c5761059b61035c565b5b6105a884828501610479565b91505092915050565b600081519050919050565b600082825260208201905092915050565b6000819050602082019050919050565b600081519050919050565b600082825260208201905092915050565b60005b838110156106175780820151818401526020810190506105fc565b60008484015250505050565b600061062e826105dd565b61063881856105e8565b93506106488185602086016105f9565b6106518161036b565b840191505092915050565b610665816104a7565b82525050565b6000819050919050565b61067e8161066b565b82525050565b600073ffffffffffffffffffffffffffffffffffffffff82169050919050565b60006106af82610684565b9050919050565b6106bf816106a4565b82525050565b600060808301600083015184820360008601526106e28282610623565b91505060208301516106f7602086018261065c565b50604083015161070a6040860182610675565b50606083015161071d60608601826106b6565b508091505092915050565b600061073483836106c5565b905092915050565b6000602082019050919050565b6000610754826105b1565b61075e81856105bc565b935083602082028501610770856105cd565b8060005b858110156107ac578484038952815161078d8582610728565b94506107988361073c565b925060208a01995050600181019050610774565b50829750879550505050505092915050565b600060208201905081810360008301526107d88184610749565b905092915050565b600081905092915050565b60006107f6826105dd565b61080081856107e0565b93506108108185602086016105f9565b80840191505092915050565b600061082882846107eb565b915081905092915050565b7f4e487b7100000000000000000000000000000000000000000000000000000000600052602260045260246000fd5b6000600282049050600182168061087a57607f821691505b60208210810361088d5761088c610833565b5b50919050565b60008190508160005260206000209050919050565b60006020601f8301049050919050565b600082821b905092915050565b6000600883026108f57fffffffffffffffffffffffffffffffffffffffffffffffffffffffffffffffff826108b8565b6108ff86836108b8565b95508019841693508086168417925050509392505050565b6000819050919050565b600061093c6109376109328461066b565b610917565b61066b565b9050919050565b6000819050919050565b61095683610921565b61096a61096282610943565b8484546108c5565b825550505050565b600090565b61097f610972565b61098a81848461094d565b505050565b5b818110156109ae576109a3600082610977565b600181019050610990565b5050565b601f8211156109f3576109c481610893565b6109cd846108a8565b810160208510156109dc578190505b6109f06109e8856108a8565b83018261098f565b50505b505050565b600082821c905092915050565b6000610a16600019846008026109f8565b1980831691505092915050565b6000610a2f8383610a05565b9150826002028217905092915050565b610a48826105dd565b67ffffffffffffffff811115610a6157610a6061037c565b5b610a6b8254610862565b610a768282856109b2565b600060209050601f831160018114610aa95760008415610a97578287015190505b610aa18582610a23565b865550610b09565b601f198416610ab786610893565b60005b82811015610adf57848901518255600182019150602085019450602081019050610aba565b86831015610afc5784890151610af8601f891682610a05565b8355505b6001600288020188555050505b505050505050565b600082825260208201905092915050565b6000610b2d826105dd565b610b378185610b11565b9350610b478185602086016105f9565b610b508161036b565b840191505092915050565b610b64816104a7565b82525050565b610b738161066b565b82525050565b60006060820190508181036000830152610b938186610b22565b9050610ba26020830185610b5b565b610baf6040830184610b6a565b94935050505056fea2646970667358221220be681871814e73654f93785778cafb7d0e89e391a52351a100e60c4dda9bf5a964736f6c63430008140033",
  "linkReferences": {},
  "deployedLinkReferences": {}
}