{
  "_format": "hh-sol-artifact-1",
  "contractName": "AnchorRegistry",
  "sourceName": "contracts/AnchorRegistry.sol",
  "abi": [
    {
      "anonymous": false,
      "inputs": [
        {
          "indexed": true,
          "internalType": "string",
          "name": "id",
          "type": "string"
        },
        {
          "indexed": false,
          "internalType": "string",
          "name": "eventType",
          "type": "string"
        },
        {
          "indexed": false,
          "internalType": "bytes32",
          "name": "hash",
          "type": "bytes32"
        },
        {
          "indexed": false,
          "internalType": "uint256",
          "name": "timestamp",
          "type": "uint256"
        }
      ],
      "name": "HashAnchored",
      "type": "event"
    },
    {
      "inputs": [
        {
          "internalType": "string",
          "name": "_id",
          "type": "string"
        },
        {
          "internalType": "string",
          "name": "_eventType",
          "type": "string"
        },
        {
          "internalType": "bytes32",
          "name": "_hash",
          "type": "bytes32"
        }
      ],
      "name": "anchorHash",
      "outputs": [],
      "stateMutability": "nonpayable",
      "type": "function"
    },
    {
      "inputs": [
        {
          "internalType": "string",
          "name": "_id",
          "type": "string"
        }
      ],
      "name": "getAnchors",
      "outputs": [
        {
          "components": [
            {
              "internalType": "string",
              "name": "eventType",
              "type": "string"
            },
            {
              "internalType": "bytes32",
              "name": "hash",
              "type": "bytes32"
            },
            {
              "internalType": "uint256",
              "name": "timestamp",
              "type": "uint256"
            },
            {
              "internalType": "address",
              "name": "sender",
              "type": "address"
            }
          ],
          "internalType": "struct AnchorRegistry.Anchor[]",
          "name": "",
          "type": "tuple[]"
        }
      ],
      "stateMutability": "view",
      "type": "function"
    }
  ],
  "bytecode": "0x608060405234801561001057600080fd5b506109cd806100206000396000f3fe608060405234801561001057600080fd5b50600436106100365760003560e01c806371ab99bf1461003b578063896aadb514610057575b600080fd5b610055600480360381019061005091906104b5565b610087565b005b610071600480360381019061006c9190610474565b6101db565b60405161007e9190610725565b60405180910390f35b600060405180608001604052808481526020018381526020014281526020013373ffffffffffffffffffffffffffffffffffffffff1681525090506000846040516100d2919061070e565b90815260200160405180910390208190806001815401808255809150506001900390600052602060002090600402016000909190919091506000820151816000019080519060200190610126929190610354565b50602082015181600101556040820151816002015560608201518160030160006101000a81548173ffffffffffffffffffffffffffffffffffffffff021916908373ffffffffffffffffffffffffffffffffffffffff160217905550505083604051610192919061070e565b60405180910390207fb487fb6502ac8ea73bcfd03c4ca946688b5b3d041354ed668bd2dcaafd64e4c98484426040516101cd93929190610747565b60405180910390a250505050565b60606000826040516101ed919061070e565b9081526020016040518091039020805480602002602001604051908101604052809291908181526020016000905b82821015610349578382906000526020600020906004020160405180608001604052908160008201805461024e906108df565b80601f016020809104026020016040519081016040528092919081815260200182805461027a906108df565b80156102c75780601f1061029c576101008083540402835291602001916102c7565b820191906000526020600020905b8154815290600101906020018083116102aa57829003601f168201915b5050505050815260200160018201548152602001600282015481526020016003820160009054906101000a900473ffffffffffffffffffffffffffffffffffffffff1673ffffffffffffffffffffffffffffffffffffffff1673ffffffffffffffffffffffffffffffffffffffff16815250508152602001906001019061021b565b505050509050919050565b828054610360906108df565b90600052602060002090601f01602090048101928261038257600085556103c9565b82601f1061039b57805160ff19168380011785556103c9565b828001600101855582156103c9579182015b828111156103c85782518255916020019190600101906103ad565b5b5090506103d691906103da565b5090565b5b808211156103f35760008160009055506001016103db565b5090565b600061040a610405846107b6565b610785565b90508281526020810184848401111561042257600080fd5b61042d84828561089d565b509392505050565b60008135905061044481610980565b92915050565b600082601f83011261045b57600080fd5b813561046b8482602086016103f7565b91505092915050565b60006020828403121561048657600080fd5b600082013567ffffffffffffffff8111156104a057600080fd5b6104ac8482850161044a565b91505092915050565b6000806000606084860312156104ca57600080fd5b600084013567ffffffffffffffff8111156104e457600080fd5b6104f08682870161044a565b935050602084013567ffffffffffffffff81111561050d57600080fd5b6105198682870161044a565b925050604061052a86828701610435565b9150509250925092565b6000610540838361068d565b905092915050565b61055181610857565b82525050565b6000610562826107f6565b61056c8185610819565b93508360208202850161057e856107e6565b8060005b858110156105ba578484038952815161059b8582610534565b94506105a68361080c565b925060208a01995050600181019050610582565b50829750879550505050505092915050565b6105d581610869565b82525050565b6105e481610869565b82525050565b60006105f582610801565b6105ff818561082a565b935061060f8185602086016108ac565b6106188161096f565b840191505092915050565b600061062e82610801565b610638818561083b565b93506106488185602086016108ac565b6106518161096f565b840191505092915050565b600061066782610801565b610671818561084c565b93506106818185602086016108ac565b80840191505092915050565b600060808301600083015184820360008601526106aa82826105ea565b91505060208301516106bf60208601826105cc565b5060408301516106d260408601826106f0565b5060608301516106e56060860182610548565b508091505092915050565b6106f981610893565b82525050565b61070881610893565b82525050565b600061071a828461065c565b915081905092915050565b6000602082019050818103600083015261073f8184610557565b905092915050565b600060608201905081810360008301526107618186610623565b905061077060208301856105db565b61077d60408301846106ff565b949350505050565b6000604051905081810181811067ffffffffffffffff821117156107ac576107ab610940565b5b8060405250919050565b600067ffffffffffffffff8211156107d1576107d0610940565b5b601f19601f8301169050602081019050919050565b6000819050602082019050919050565b600081519050919050565b600081519050919050565b6000602082019050919050565b600082825260208201905092915050565b600082825260208201905092915050565b600082825260208201905092915050565b600081905092915050565b600061086282610873565b9050919050565b6000819050919050565b600073ffffffffffffffffffffffffffffffffffffffff82169050919050565b6000819050919050565b82818337600083830152505050565b60005b838110156108ca5780820151818401526020810190506108af565b838111156108d9576000848401525b50505050565b600060028204905060018216806108f757607f821691505b6020821081141561090b5761090a610911565b5b50919050565b7f4e487b7100000000000000000000000000000000000000000000000000000000600052602260045260246000fd5b7f4e487b7100000000000000000000000000000000000000000000000000000000600052604160045260246000fd5b6000601f19601f8301169050919050565b61098981610869565b811461099457600080fd5b5056fea2646970667358221220603d92e6fef9453c60383198b6cba65f63ab1a6910cf9aa640fe638b7eb3fc8364736f6c63430008000033",
  "linkReferences": {},
  "deployedLinkReferences": {}
}