{
  "_format": "hh-sol-artifact-1",
  "contractName": "RegistrarRoleToken",
  "sourceName": "contracts/RegistrarRoleToken.sol",
  "abi": [
    {
      "inputs": [],
      "stateMutability": "nonpayable",
      "type": "constructor"
    },
    {
      "inputs": [
        {
          "internalType": "address",
          "name": "sender",
          "type": "address"
        },
        {
          "internalType": "uint256",
          "name": "tokenId",
          "type": "uint256"
        },
        {
          "internalType": "address",
          "name": "owner",
          "type": "address"
        }
      ],
      "name": "ERC721IncorrectOwner",
      "type": "error"
    },
    {
      "inputs": [
        {
          "internalType": "address",
          "name": "operator",
          "type": "address"
        },
        {
          "internalType": "uint256",
          "name": "tokenId",
          "type": "uint256"
        }
      ],
      "name": "ERC721InsufficientApproval",
      "type": "error"
    },
    {
      "inputs": [
        {
          "internalType": "address",
          "name": "approver",
          "type": "address"
        }
      ],
      "name": "ERC721InvalidApprover",
      "type": "error"
    },
    {
      "inputs": [
        {
          "internalType": "address",
          "name": "operator",
          "type": "address"
        }
      ],
      "name": "ERC721InvalidOperator",
      "type": "error"
    },
    {
      "inputs": [
        {
          "internalType": "address",
          "name": "owner",
          "type": "address"
        }
      ],
      "name": "ERC721InvalidOwner",
      "type": "error"
    },
    {
      "inputs": [
        {
          "internalType": "address",
          "name": "receiver",
          "type": "address"
        }
      ],
      "name": "ERC721InvalidReceiver",
      "type": "error"
    },
    {
      "inputs": [
        {
          "internalType": "address",
          "name": "sender",
          "type": "address"
        }
      ],
      "name": "ERC721InvalidSender",
      "type": "error"
    },
    {
      "inputs": [
        {
          "internalType": "uint256",
          "name": "tokenId",
          "type": "uint256"
        }
      ],
      "name": "ERC721NonexistentToken",
      "type": "error"
    },
    {
      "inputs": [
        {
          "internalType": "address",
          "name": "owner",
          "type": "address"
        }
      ],
      "name": "OwnableInvalidOwner",
      "type": "error"
    },
    {
      "inputs": [
        {
          "internalType": "address",
          "name": "account",
          "type": "address"
        }
      ],
      "name": "OwnableUnauthorizedAccount",
      "type": "error"
    },
    {
      "anonymous": false,
      "inputs": [
        {
          "indexed": true,
          "internalType": "address",
          "name": "owner",
          "type": "address"
        },
        {
          "indexed": true,
          "internalType": "address",
          "name": "approved",
          "type": "address"
        },
        {
          "indexed": true,
          "internalType": "uint256",
          "name": "tokenId",
          "type": "uint256"
        }
      ],
      "name": "Approval",
      "type": "event"
    },
    {
      "anonymous": false,
      "inputs": [
        {
          "indexed": true,
          "internalType": "address",
          "name": "owner",
          "type": "address"
        },
        {
          "indexed": true,
          "internalType": "address",
          "name": "operator",
          "type": "address"
        },
        {
          "indexed": false,
          "internalType": "bool",
          "name": "approved",
          "type": "bool"
        }
      ],
      "name": "ApprovalForAll",
      "type": "event"
    },
    {
      "anonymous": false,
      "inputs": [
        {
          "indexed": true,
          "internalType": "address",
          "name": "previousOwner",
          "type": "address"
        },
        {
          "indexed": true,
          "internalType": "address",
          "name": "newOwner",
          "type": "address"
        }
      ],
      "name": "OwnershipTransferred",
      "type": "event"
    },
    {
      "anonymous": false,
      "inputs": [
        {
          "indexed": true,
          "internalType": "address",
          "name": "registrar",
          "type": "address"
        },
        {
          "indexed": false,
          "internalType": "uint256",
          "name": "tokenId",
          "type": "uint256"
        },
        {
          "indexed": false,
          "internalType": "string",
          "name": "jurisdiction",
          "type": "string"
        }
      ],
      "name": "RegistrarMinted",
      "type": "event"
    },
    {
      "anonymous": false,
      "inputs": [
        {
          "indexed": true,
          "internalType": "address",
          "name": "registrar",
          "type": "address"
        },
        {
          "indexed": false,
          "internalType": "uint256",
          "name": "tokenId",
          "type": "uint256"
        }
      ],
      "name": "RegistrarRevoked",
      "type": "event"
    },
    {
      "anonymous": false,
      "inputs": [
        {
          "indexed": true,
          "internalType": "address",
          "name": "from",
          "type": "address"
        },
        {
          "indexed": true,
          "internalType": "address",
          "name": "to",
          "type": "address"
        },
        {
          "indexed": true,
          "internalType": "uint256",
          "name": "tokenId",
          "type": "uint256"
        }
      ],
      "name": "Transfer",
      "type": "event"
    },
    {
      "inputs": [
        {
          "internalType": "address",
          "name": "to",
          "type": "address"
        },
        {
          "internalType": "uint256",
          "name": "tokenId",
          "type": "uint256"
        }
      ],
      "name": "approve",
      "outputs": [],
      "stateMutability": "nonpayable",
      "type": "function"
    },
    {
      "inputs": [
        {
          "internalType": "address",
          "name": "owner",
          "type": "address"
        }
      ],
      "name": "balanceOf",
      "outputs": [
        {
          "internalType": "uint256",
          "name": "",
          "type": "uint256"
        }
      ],
      "stateMutability": "view",
      "type": "function"
    },
    {
      "inputs": [
        {
          "internalType": "uint256",
          "name": "tokenId",
          "type": "uint256"
        }
      ],
      "name": "getApproved",
      "outputs": [
        {
          "internalType": "address",
          "name": "",
          "type": "address"
        }
      ],
      "stateMutability": "view",
      "type": "function"
    },
    {
      "inputs": [
        {
          "internalType": "address",
          "name": "account",
          "type": "address"
        }
      ],
      "name": "getRegistrarInfo",
      "outputs": [
        {
          "components": [
            {
              "internalType": "string",
              "name": "officialId",
              "type": "string"
            },
            {
              "internalType": "string",
              "name": "designation",
              "type": "string"
            },
            {
              "internalType": "string",
              "name": "jurisdiction",
              "type": "string"
            },
            {
              "internalType": "uint256",
              "name": "issuedAt",
              "type": "uint256"
            },
            {
              "internalType": "bool",
              "name": "active",
              "type": "bool"
            }
          ],
          "internalType": "struct RegistrarRoleToken.RegistrarInfo",
          "name": "",
          "type": "tuple"
        }
      ],
      "stateMutability": "view",
      "type": "function"
    },
    {
      "inputs": [
        {
          "internalType": "address",
          "name": "account",
          "type": "address"
        }
      ],
      "name": "hasRole",
      "outputs": [
        {
          "internalType": "bool",
          "name": "",
          "type": "bool"
        }
      ],
      "stateMutability": "view",
      "type": "function"
    },
    {
      "inputs": [
        {
          "internalType": "address",
          "name": "owner",
          "type": "address"
        },
        {
          "internalType": "address",
          "name": "operator",
          "type": "address"
        }
      ],
      "name": "isApprovedForAll",
      "outputs": [
        {
          "internalType": "bool",
          "name": "",
          "type": "bool"
        }
      ],
      "stateMutability": "view",
      "type": "function"
    },
    {
      "inputs": [
        {
          "internalType": "address",
          "name": "to",
          "type": "address"
        },
        {
          "internalType": "string",
          "name": "officialId",
          "type": "string"
        },
        {
          "internalType": "string",
          "name": "designation",
          "type": "string"
        },
        {
          "internalType": "string",
          "name": "jurisdiction",
          "type": "string"
        }
      ],
      "name": "mint",
      "outputs": [
        {
          "internalType": "uint256",
          "name": "",
          "type": "uint256"
        }
      ],
      "stateMutability": "nonpayable",
      "type": "function"
    },
    {
      "inputs": [],
      "name": "name",
      "outputs": [
        {
          "internalType": "string",
          "name": "",
          "type": "string"
        }
      ],
      "stateMutability": "view",
      "type": "function"
    },
    {
      "inputs": [],
      "name": "owner",
      "outputs": [
        {
          "internalType": "address",
          "name": "",
          "type": "address"
        }
      ],
      "stateMutability": "view",
      "type": "function"
    },
    {
      "inputs": [
        {
          "internalType": "uint256",
          "name": "tokenId",
          "type": "uint256"
        }
      ],
      "name": "ownerOf",
      "outputs": [
        {
          "internalType": "address",
          "name": "",
          "type": "address"
        }
      ],
      "stateMutability": "view",
      "type": "function"
    },
    {
      "inputs": [
        {
          "internalType": "uint256",
          "name": "",
          "type": "uint256"
        }
      ],
      "name": "registrarInfo",
      "outputs": [
        {
          "internalType": "string",
          "name": "officialId",
          "type": "string"
        },
        {
          "internalType": "string",
          "name": "designation",
          "type": "string"
        },
        {
          "internalType": "string",
          "name": "jurisdiction",
          "type": "string"
        },
        {
          "internalType": "uint256",
          "name": "issuedAt",
          "type": "uint256"
        },
        {
          "internalType": "bool",
          "name": "active",
          "type": "bool"
        }
      ],
      "stateMutability": "view",
      "type": "function"
    },
    {
      "inputs": [
        {
          "internalType": "address",
          "name": "",
          "type": "address"
        }
      ],
      "name": "registrarToken",
      "outputs": [
        {
          "internalType": "uint256",
          "name": "",
          "type": "uint256"
        }
      ],
      "stateMutability": "view",
      "type": "function"
    },
    {
      "inputs": [],
      "name": "renounceOwnership",
      "outputs": [],
      "stateMutability": "nonpayable",
      "type": "function"
    },
    {
      "inputs": [
        {
          "internalType": "address",
          "name": "registrar",
          "type": "address"
        }
      ],
      "name": "revoke",
      "outputs": [],
      "stateMutability": "nonpayable",
      "type": "function"
    },
    {
      "inputs": [
        {
          "internalType": "address",
          "name": "from",
          "type": "address"
        },
        {
          "internalType": "address",
          "name": "to",
          "type": "address"
        },
        {
          "internalType": "uint256",
          "name": "tokenId",
          "type": "uint256"
        }
      ],
      "name": "safeTransferFrom",
      "outputs": [],
      "stateMutability": "nonpayable",
      "type": "function"
    },
    {
      "inputs": [
        {
          "internalType": "address",
          "name": "from",
          "type": "address"
        },
        {
          "internalType": "address",
          "name": "to",
          "type": "address"
        },
        {
          "internalType": "uint256",
          "name": "tokenId",
          "type": "uint256"
        },
        {
          "internalType": "bytes",
          "name": "data",
          "type": "bytes"
        }
      ],
      "name": "safeTransferFrom",
      "outputs": [],
      "stateMutability": "nonpayable",
      "type": "function"
    },
    {
      "inputs": [
        {
          "internalType": "address",
          "name": "operator",
          "type": "address"
        },
        {
          "internalType": "bool",
          "name": "approved",
          "type": "bool"
        }
      ],
      "name": "setApprovalForAll",
      "outputs": [],
      "stateMutability": "nonpayable",
      "type": "function"
    },
    {
      "inputs": [
        {
          "internalType": "bytes4",
          "name": "interfaceId",
          "type": "bytes4"
        }
      ],
      "name": "supportsInterface",
      "outputs": [
        {
          "internalType": "bool",
          "name": "",
          "type": "bool"
        }
      ],
      "stateMutability": "view",
      "type": "function"
    },
    {
      "inputs": [],
      "name": "symbol",
      "outputs": [
        {
          "internalType": "string",
          "name": "",
          "type": "string"
        }
      ],
      "stateMutability": "view",
      "type": "function"
    },
    {
      "inputs": [
        {
          "internalType": "uint256",
          "name": "tokenId",
          "type": "uint256"
        }
      ],
      "name": "tokenURI",
      "outputs": [
        {
          "internalType": "string",
          "name": "",
          "type": "string"
        }
      ],
      "stateMutability": "view",
      "type": "function"
    },
    {
      "inputs": [
        {
          "internalType": "address",
          "name": "from",
          "type": "address"
        },
        {
          "internalType": "address",
          "name": "to",
          "type": "address"
        },
        {
          "internalType": "uint256",
          "name": "tokenId",
          "type": "uint256"
        }
      ],
      "name": "transferFrom",
      "outputs": [],
      "stateMutability": "nonpayable",
      "type": "function"
    },
    {
      "inputs": [
        {
          "internalType": "address",
          "name": "newOwner",
          "type": "address"
        }
      ],
      "name": "transferOwnership",
      "outputs": [],
      "stateMutability": "nonpayable",
      "type": "function"
    }
  ],
  "bytecode": "0x60806040523480156200001157600080fd5b50336040518060400160405280601981526020017f42686f6f6d69536574752052656769737472617220526f6c65000000000000008152506040518060400160405280600481526020017f425352520000000000000000000000000000000000000000000000000000000081525081600090816200009091906200047a565b508060019081620000a291906200047a565b505050600073ffffffffffffffffffffffffffffffffffffffff168173ffffffffffffffffffffffffffffffffffffffff16036200011a5760006040517f1e4fbdf7000000000000000000000000000000000000000000000000000000008152600401620001119190620005a6565b60405180910390fd5b6200012b816200013a60201b60201c565b506001600981905550620005c3565b6000600660009054906101000a900473ffffffffffffffffffffffffffffffffffffffff16905081600660006101000a81548173ffffffffffffffffffffffffffffffffffffffff021916908373ffffffffffffffffffffffffffffffffffffffff1602179055508173ffffffffffffffffffffffffffffffffffffffff168173ffffffffffffffffffffffffffffffffffffffff167f8be0079c531659141344cd1fd0a4f28419497f9722a3daafe3b4186f6b6457e060405160405180910390a35050565b600081519050919050565b7f4e487b7100000000000000000000000000000000000000000000000000000000600052604160045260246000fd5b7f4e487b7100000000000000000000000000000000000000000000000000000000600052602260045260246000fd5b600060028204905060018216806200028257607f821691505b6020821081036200029857620002976200023a565b5b50919050565b60008190508160005260206000209050919050565b60006020601f8301049050919050565b600082821b905092915050565b600060088302620003027fffffffffffffffffffffffffffffffffffffffffffffffffffffffffffffffff82620002c3565b6200030e8683620002c3565b95508019841693508086168417925050509392505050565b6000819050919050565b6000819050919050565b60006200035b620003556200034f8462000326565b62000330565b62000326565b9050919050565b6000819050919050565b62000377836200033a565b6200038f620003868262000362565b848454620002d0565b825550505050565b600090565b620003a662000397565b620003b38184846200036c565b505050565b5b81811015620003db57620003cf6000826200039c565b600181019050620003b9565b5050565b601f8211156200042a57620003f4816200029e565b620003ff84620002b3565b810160208510156200040f578190505b620004276200041e85620002b3565b830182620003b8565b50505b505050565b600082821c905092915050565b60006200044f600019846008026200042f565b1980831691505092915050565b60006200046a83836200043c565b9150826002028217905092915050565b620004858262000200565b67ffffffffffffffff811115620004a157620004a06200020b565b5b620004ad825462000269565b620004ba828285620003df565b600060209050601f831160018114620004f25760008415620004dd578287015190505b620004e985826200045c565b86555062000559565b601f19841662000502866200029e565b60005b828110156200052c5784890151825560018201915060208501945060208101905062000505565b868310156200054c578489015162000548601f8916826200043c565b8355505b6001600288020188555050505b505050505050565b600073ffffffffffffffffffffffffffffffffffffffff82169050919050565b60006200058e8262000561565b9050919050565b620005a08162000581565b82525050565b6000602082019050620005bd600083018462000595565b92915050565b61336e80620005d36000396000f3fe608060405234801561001057600080fd5b50600436106101425760003560e01c8063715018a6116100b8578063a22cb4651161007c578063a22cb4651461039f578063b88d4fde146103bb578063c87b56dd146103d7578063dce1022414610407578063e985e9c514610437578063f2fde38b1461046757610142565b8063715018a61461030d57806374a8f103146103175780637ef09bca146103335780638da5cb5b1461036357806395d89b411461038157610142565b806342842e0e1161010a57806342842e0e146101fd57806346fb4340146102195780634a0706be1461024d5780634f9195af1461027d5780636352211e146102ad57806370a08231146102dd57610142565b806301ffc9a71461014757806306fdde0314610177578063081812fc14610195578063095ea7b3146101c557806323b872dd146101e1575b600080fd5b610161600480360381019061015c91906123c5565b610483565b60405161016e919061240d565b60405180910390f35b61017f610565565b60405161018c91906124b8565b60405180910390f35b6101af60048036038101906101aa9190612510565b6105f7565b6040516101bc919061257e565b60405180910390f35b6101df60048036038101906101da91906125c5565b610613565b005b6101fb60048036038101906101f69190612605565b610629565b005b61021760048036038101906102129190612605565b61072b565b005b610233600480360381019061022e9190612510565b61074b565b604051610244959493929190612667565b60405180910390f35b61026760048036038101906102629190612804565b610926565b60405161027491906128bf565b60405180910390f35b610297600480360381019061029291906128da565b610b27565b6040516102a491906129f3565b60405180910390f35b6102c760048036038101906102c29190612510565b610db7565b6040516102d4919061257e565b60405180910390f35b6102f760048036038101906102f291906128da565b610dc9565b60405161030491906128bf565b60405180910390f35b610315610e83565b005b610331600480360381019061032c91906128da565b610e97565b005b61034d600480360381019061034891906128da565b610ff5565b60405161035a919061240d565b60405180910390f35b61036b611079565b604051610378919061257e565b60405180910390f35b6103896110a3565b60405161039691906124b8565b60405180910390f35b6103b960048036038101906103b49190612a41565b611135565b005b6103d560048036038101906103d09190612b22565b61114b565b005b6103f160048036038101906103ec9190612510565b611170565b6040516103fe91906124b8565b60405180910390f35b610421600480360381019061041c91906128da565b6111d9565b60405161042e91906128bf565b60405180910390f35b610451600480360381019061044c9190612ba5565b6111f1565b60405161045e919061240d565b60405180910390f35b610481600480360381019061047c91906128da565b611285565b005b60007f80ac58cd000000000000000000000000000000000000000000000000000000007bffffffffffffffffffffffffffffffffffffffffffffffffffffffff1916827bffffffffffffffffffffffffffffffffffffffffffffffffffffffff1916148061054e57507f5b5e139f000000000000000000000000000000000000000000000000000000007bffffffffffffffffffffffffffffffffffffffffffffffffffffffff1916827bffffffffffffffffffffffffffffffffffffffffffffffffffffffff1916145b8061055e575061055d8261130b565b5b9050919050565b60606000805461057490612c14565b80601f01602080910402602001604051908101604052809291908181526020018280546105a090612c14565b80156105ed5780601f106105c2576101008083540402835291602001916105ed565b820191906000526020600020905b8154815290600101906020018083116105d057829003601f168201915b5050505050905090565b600061060282611375565b5061060c826113fd565b9050919050565b610625828261062061143a565b611442565b5050565b600073ffffffffffffffffffffffffffffffffffffffff168273ffffffffffffffffffffffffffffffffffffffff160361069b5760006040517f64a0ae92000000000000000000000000000000000000000000000000000000008152600401610692919061257e565b60405180910390fd5b60006106af83836106aa61143a565b611454565b90508373ffffffffffffffffffffffffffffffffffffffff168173ffffffffffffffffffffffffffffffffffffffff1614610725578382826040517f64283d7b00000000000000000000000000000000000000000000000000000000815260040161071c93929190612c45565b60405180910390fd5b50505050565b6107468383836040518060200160405280600081525061114b565b505050565b600760205280600052604060002060009150905080600001805461076e90612c14565b80601f016020809104026020016040519081016040528092919081815260200182805461079a90612c14565b80156107e75780601f106107bc576101008083540402835291602001916107e7565b820191906000526020600020905b8154815290600101906020018083116107ca57829003601f168201915b5050505050908060010180546107fc90612c14565b80601f016020809104026020016040519081016040528092919081815260200182805461082890612c14565b80156108755780601f1061084a57610100808354040283529160200191610875565b820191906000526020600020905b81548152906001019060200180831161085857829003601f168201915b50505050509080600201805461088a90612c14565b80601f01602080910402602001604051908101604052809291908181526020018280546108b690612c14565b80156109035780601f106108d857610100808354040283529160200191610903565b820191906000526020600020905b8154815290600101906020018083116108e657829003601f168201915b5050505050908060030154908060040160009054906101000a900460ff16905085565b6000610930611521565b6000600860008773ffffffffffffffffffffffffffffffffffffffff1673ffffffffffffffffffffffffffffffffffffffff16815260200190815260200160002054146109b2576040517f08c379a00000000000000000000000000000000000000000000000000000000081526004016109a990612cee565b60405180910390fd5b60006009549050600960008154809291906109cc90612d3d565b91905055506109db86826115a8565b6040518060a0016040528086815260200185815260200184815260200142815260200160011515815250600760008381526020019081526020016000206000820151816000019081610a2d9190612f31565b506020820151816001019081610a439190612f31565b506040820151816002019081610a599190612f31565b506060820151816003015560808201518160040160006101000a81548160ff02191690831515021790555090505080600860008873ffffffffffffffffffffffffffffffffffffffff1673ffffffffffffffffffffffffffffffffffffffff168152602001908152602001600020819055508573ffffffffffffffffffffffffffffffffffffffff167f4b330c047d678b5289a86ecb3f3cb715755f0c0be219ca8994187700d86773f78285604051610b13929190613003565b60405180910390a280915050949350505050565b610b2f612328565b6000600860008473ffffffffffffffffffffffffffffffffffffffff1673ffffffffffffffffffffffffffffffffffffffff16815260200190815260200160002054905060008103610bb6576040517f08c379a0000000000000000000000000000000000000000000000000000000008152600401610bad9061307f565b60405180910390fd5b600760008281526020019081526020016000206040518060a0016040529081600082018054610be490612c14565b80601f0160208091040260200160405190810160405280929190818152602001828054610c1090612c14565b8015610c5d5780601f10610c3257610100808354040283529160200191610c5d565b820191906000526020600020905b815481529060010190602001808311610c4057829003601f168201915b50505050508152602001600182018054610c7690612c14565b80601f0160208091040260200160405190810160405280929190818152602001828054610ca290612c14565b8015610cef5780601f10610cc457610100808354040283529160200191610cef565b820191906000526020600020905b815481529060010190602001808311610cd257829003601f168201915b50505050508152602001600282018054610d0890612c14565b80601f0160208091040260200160405190810160405280929190818152602001828054610d3490612c14565b8015610d815780601f10610d5657610100808354040283529160200191610d81565b820191906000526020600020905b815481529060010190602001808311610d6457829003601f168201915b50505050508152602001600382015481526020016004820160009054906101000a900460ff161515151581525050915050919050565b6000610dc282611375565b9050919050565b60008073ffffffffffffffffffffffffffffffffffffffff168273ffffffffffffffffffffffffffffffffffffffff1603610e3c5760006040517f89c62b64000000000000000000000000000000000000000000000000000000008152600401610e33919061257e565b60405180910390fd5b600360008373ffffffffffffffffffffffffffffffffffffffff1673ffffffffffffffffffffffffffffffffffffffff168152602001908152602001600020549050919050565b610e8b611521565b610e9560006115c6565b565b610e9f611521565b6000600860008373ffffffffffffffffffffffffffffffffffffffff1673ffffffffffffffffffffffffffffffffffffffff16815260200190815260200160002054905060008103610f26576040517f08c379a0000000000000000000000000000000000000000000000000000000008152600401610f1d906130eb565b60405180910390fd5b60006007600083815260200190815260200160002060040160006101000a81548160ff0219169083151502179055506000600860008473ffffffffffffffffffffffffffffffffffffffff1673ffffffffffffffffffffffffffffffffffffffff16815260200190815260200160002081905550610fa38161168c565b8173ffffffffffffffffffffffffffffffffffffffff167f7980a583abc3c1b2f0fdeddcecc6e539359eba61689fd86faa826c3e8df5f5f482604051610fe991906128bf565b60405180910390a25050565b600080600860008473ffffffffffffffffffffffffffffffffffffffff1673ffffffffffffffffffffffffffffffffffffffff1681526020019081526020016000205490506000810361104c576000915050611074565b6007600082815260200190815260200160002060040160009054906101000a900460ff169150505b919050565b6000600660009054906101000a900473ffffffffffffffffffffffffffffffffffffffff16905090565b6060600180546110b290612c14565b80601f01602080910402602001604051908101604052809291908181526020018280546110de90612c14565b801561112b5780601f106111005761010080835404028352916020019161112b565b820191906000526020600020905b81548152906001019060200180831161110e57829003601f168201915b5050505050905090565b61114761114061143a565b8383611712565b5050565b611156848484610629565b61116a61116161143a565b85858585611881565b50505050565b606061117b82611375565b506000611186611a32565b905060008151116111a657604051806020016040528060008152506111d1565b806111b084611a49565b6040516020016111c1929190613147565b6040516020818303038152906040525b915050919050565b60086020528060005260406000206000915090505481565b6000600560008473ffffffffffffffffffffffffffffffffffffffff1673ffffffffffffffffffffffffffffffffffffffff16815260200190815260200160002060008373ffffffffffffffffffffffffffffffffffffffff1673ffffffffffffffffffffffffffffffffffffffff16815260200190815260200160002060009054906101000a900460ff16905092915050565b61128d611521565b600073ffffffffffffffffffffffffffffffffffffffff168173ffffffffffffffffffffffffffffffffffffffff16036112ff5760006040517f1e4fbdf70000000000000000000000000000000000000000000000000000000081526004016112f6919061257e565b60405180910390fd5b611308816115c6565b50565b60007f01ffc9a7000000000000000000000000000000000000000000000000000000007bffffffffffffffffffffffffffffffffffffffffffffffffffffffff1916827bffffffffffffffffffffffffffffffffffffffffffffffffffffffff1916149050919050565b60008061138183611b17565b9050600073ffffffffffffffffffffffffffffffffffffffff168173ffffffffffffffffffffffffffffffffffffffff16036113f457826040517f7e2732890000000000000000000000000000000000000000000000000000000081526004016113eb91906128bf565b60405180910390fd5b80915050919050565b60006004600083815260200190815260200160002060009054906101000a900473ffffffffffffffffffffffffffffffffffffffff169050919050565b600033905090565b61144f8383836001611b54565b505050565b60008061146084611b17565b9050600073ffffffffffffffffffffffffffffffffffffffff168173ffffffffffffffffffffffffffffffffffffffff16141580156114cc5750600073ffffffffffffffffffffffffffffffffffffffff168573ffffffffffffffffffffffffffffffffffffffff1614155b1561150c576040517f08c379a0000000000000000000000000000000000000000000000000000000008152600401611503906131dd565b60405180910390fd5b611517858585611d19565b9150509392505050565b61152961143a565b73ffffffffffffffffffffffffffffffffffffffff16611547611079565b73ffffffffffffffffffffffffffffffffffffffff16146115a65761156a61143a565b6040517f118cdaa700000000000000000000000000000000000000000000000000000000815260040161159d919061257e565b60405180910390fd5b565b6115c2828260405180602001604052806000815250611f33565b5050565b6000600660009054906101000a900473ffffffffffffffffffffffffffffffffffffffff16905081600660006101000a81548173ffffffffffffffffffffffffffffffffffffffff021916908373ffffffffffffffffffffffffffffffffffffffff1602179055508173ffffffffffffffffffffffffffffffffffffffff168173ffffffffffffffffffffffffffffffffffffffff167f8be0079c531659141344cd1fd0a4f28419497f9722a3daafe3b4186f6b6457e060405160405180910390a35050565b600061169b6000836000611454565b9050600073ffffffffffffffffffffffffffffffffffffffff168173ffffffffffffffffffffffffffffffffffffffff160361170e57816040517f7e27328900000000000000000000000000000000000000000000000000000000815260040161170591906128bf565b60405180910390fd5b5050565b600073ffffffffffffffffffffffffffffffffffffffff168273ffffffffffffffffffffffffffffffffffffffff160361178357816040517f5b08ba1800000000000000000000000000000000000000000000000000000000815260040161177a919061257e565b60405180910390fd5b80600560008573ffffffffffffffffffffffffffffffffffffffff1673ffffffffffffffffffffffffffffffffffffffff16815260200190815260200160002060008473ffffffffffffffffffffffffffffffffffffffff1673ffffffffffffffffffffffffffffffffffffffff16815260200190815260200160002060006101000a81548160ff0219169083151502179055508173ffffffffffffffffffffffffffffffffffffffff168373ffffffffffffffffffffffffffffffffffffffff167f17307eab39ab6107e8899845ad3d59bd9653f200f220920489ca2b5937696c3183604051611874919061240d565b60405180910390a3505050565b60008373ffffffffffffffffffffffffffffffffffffffff163b1115611a2b578273ffffffffffffffffffffffffffffffffffffffff1663150b7a02868685856040518563ffffffff1660e01b81526004016118e09493929190613252565b6020604051808303816000875af192505050801561191c57506040513d601f19601f8201168201806040525081019061191991906132b3565b60015b6119a0573d806000811461194c576040519150601f19603f3d011682016040523d82523d6000602084013e611951565b606091505b50600081510361199857836040517f64a0ae9200000000000000000000000000000000000000000000000000000000815260040161198f919061257e565b60405180910390fd5b805160208201fd5b63150b7a0260e01b7bffffffffffffffffffffffffffffffffffffffffffffffffffffffff1916817bffffffffffffffffffffffffffffffffffffffffffffffffffffffff191614611a2957836040517f64a0ae92000000000000000000000000000000000000000000000000000000008152600401611a20919061257e565b60405180910390fd5b505b5050505050565b606060405180602001604052806000815250905090565b606060006001611a5884611f57565b01905060008167ffffffffffffffff811115611a7757611a766126d9565b5b6040519080825280601f01601f191660200182016040528015611aa95781602001600182028036833780820191505090505b509050600082602083010190505b600115611b0c578080600190039150507f3031323334353637383961626364656600000000000000000000000000000000600a86061a8153600a8581611b0057611aff6132e0565b5b04945060008503611ab7575b819350505050919050565b60006002600083815260200190815260200160002060009054906101000a900473ffffffffffffffffffffffffffffffffffffffff169050919050565b8080611b8d5750600073ffffffffffffffffffffffffffffffffffffffff168273ffffffffffffffffffffffffffffffffffffffff1614155b15611cc1576000611b9d84611375565b9050600073ffffffffffffffffffffffffffffffffffffffff168373ffffffffffffffffffffffffffffffffffffffff1614158015611c0857508273ffffffffffffffffffffffffffffffffffffffff168173ffffffffffffffffffffffffffffffffffffffff1614155b8015611c1b5750611c1981846111f1565b155b15611c5d57826040517fa9fbf51f000000000000000000000000000000000000000000000000000000008152600401611c54919061257e565b60405180910390fd5b8115611cbf57838573ffffffffffffffffffffffffffffffffffffffff168273ffffffffffffffffffffffffffffffffffffffff167f8c5be1e5ebec7d5bd14f71427d1e84f3dd0314c0f7b2291e5b200ac8c7c3b92560405160405180910390a45b505b836004600085815260200190815260200160002060006101000a81548173ffffffffffffffffffffffffffffffffffffffff021916908373ffffffffffffffffffffffffffffffffffffffff16021790555050505050565b600080611d2584611b17565b9050600073ffffffffffffffffffffffffffffffffffffffff168373ffffffffffffffffffffffffffffffffffffffff1614611d6757611d668184866120aa565b5b600073ffffffffffffffffffffffffffffffffffffffff168173ffffffffffffffffffffffffffffffffffffffff1614611df857611da9600085600080611b54565b6001600360008373ffffffffffffffffffffffffffffffffffffffff1673ffffffffffffffffffffffffffffffffffffffff168152602001908152602001600020600082825403925050819055505b600073ffffffffffffffffffffffffffffffffffffffff168573ffffffffffffffffffffffffffffffffffffffff1614611e7b576001600360008773ffffffffffffffffffffffffffffffffffffffff1673ffffffffffffffffffffffffffffffffffffffff168152602001908152602001600020600082825401925050819055505b846002600086815260200190815260200160002060006101000a81548173ffffffffffffffffffffffffffffffffffffffff021916908373ffffffffffffffffffffffffffffffffffffffff160217905550838573ffffffffffffffffffffffffffffffffffffffff168273ffffffffffffffffffffffffffffffffffffffff167fddf252ad1be2c89b69c2b068fc378daa952ba7f163c4a11628f55a4df523b3ef60405160405180910390a4809150509392505050565b611f3d838361216e565b611f52611f4861143a565b6000858585611881565b505050565b600080600090507a184f03e93ff9f4daa797ed6e38ed64bf6a1f0100000000000000008310611fb5577a184f03e93ff9f4daa797ed6e38ed64bf6a1f0100000000000000008381611fab57611faa6132e0565b5b0492506040810190505b6d04ee2d6d415b85acef81000000008310611ff2576d04ee2d6d415b85acef81000000008381611fe857611fe76132e0565b5b0492506020810190505b662386f26fc10000831061202157662386f26fc100008381612017576120166132e0565b5b0492506010810190505b6305f5e100831061204a576305f5e10083816120405761203f6132e0565b5b0492506008810190505b612710831061206f576127108381612065576120646132e0565b5b0492506004810190505b606483106120925760648381612088576120876132e0565b5b0492506002810190505b600a83106120a1576001810190505b80915050919050565b6120b5838383612267565b61216957600073ffffffffffffffffffffffffffffffffffffffff168373ffffffffffffffffffffffffffffffffffffffff160361212a57806040517f7e27328900000000000000000000000000000000000000000000000000000000815260040161212191906128bf565b60405180910390fd5b81816040517f177e802f00000000000000000000000000000000000000000000000000000000815260040161216092919061330f565b60405180910390fd5b505050565b600073ffffffffffffffffffffffffffffffffffffffff168273ffffffffffffffffffffffffffffffffffffffff16036121e05760006040517f64a0ae920000000000000000000000000000000000000000000000000000000081526004016121d7919061257e565b60405180910390fd5b60006121ee83836000611454565b9050600073ffffffffffffffffffffffffffffffffffffffff168173ffffffffffffffffffffffffffffffffffffffff16146122625760006040517f73c6ac6e000000000000000000000000000000000000000000000000000000008152600401612259919061257e565b60405180910390fd5b505050565b60008073ffffffffffffffffffffffffffffffffffffffff168373ffffffffffffffffffffffffffffffffffffffff161415801561231f57508273ffffffffffffffffffffffffffffffffffffffff168473ffffffffffffffffffffffffffffffffffffffff1614806122e057506122df84846111f1565b5b8061231e57508273ffffffffffffffffffffffffffffffffffffffff16612306836113fd565b73ffffffffffffffffffffffffffffffffffffffff16145b5b90509392505050565b6040518060a00160405280606081526020016060815260200160608152602001600081526020016000151581525090565b6000604051905090565b600080fd5b600080fd5b60007fffffffff0000000000000000000000000000000000000000000000000000000082169050919050565b6123a28161236d565b81146123ad57600080fd5b50565b6000813590506123bf81612399565b92915050565b6000602082840312156123db576123da612363565b5b60006123e9848285016123b0565b91505092915050565b60008115159050919050565b612407816123f2565b82525050565b600060208201905061242260008301846123fe565b92915050565b600081519050919050565b600082825260208201905092915050565b60005b83811015612462578082015181840152602081019050612447565b60008484015250505050565b6000601f19601f8301169050919050565b600061248a82612428565b6124948185612433565b93506124a4818560208601612444565b6124ad8161246e565b840191505092915050565b600060208201905081810360008301526124d2818461247f565b905092915050565b6000819050919050565b6124ed816124da565b81146124f857600080fd5b50565b60008135905061250a816124e4565b92915050565b60006020828403121561252657612525612363565b5b6000612534848285016124fb565b91505092915050565b600073ffffffffffffffffffffffffffffffffffffffff82169050919050565b60006125688261253d565b9050919050565b6125788161255d565b82525050565b6000602082019050612593600083018461256f565b92915050565b6125a28161255d565b81146125ad57600080fd5b50565b6000813590506125bf81612599565b92915050565b600080604083850312156125dc576125db612363565b5b60006125ea858286016125b0565b92505060206125fb858286016124fb565b9150509250929050565b60008060006060848603121561261e5761261d612363565b5b600061262c868287016125b0565b935050602061263d868287016125b0565b925050604061264e868287016124fb565b9150509250925092565b612661816124da565b82525050565b600060a0820190508181036000830152612681818861247f565b90508181036020830152612695818761247f565b905081810360408301526126a9818661247f565b90506126b86060830185612658565b6126c560808301846123fe565b9695505050505050565b600080fd5b600080fd5b7f4e487b7100000000000000000000000000000000000000000000000000000000600052604160045260246000fd5b6127118261246e565b810181811067ffffffffffffffff821117156127305761272f6126d9565b5b80604052505050565b6000612743612359565b905061274f8282612708565b919050565b600067ffffffffffffffff82111561276f5761276e6126d9565b5b6127788261246e565b9050602081019050919050565b82818337600083830152505050565b60006127a76127a284612754565b612739565b9050828152602081018484840111156127c3576127c26126d4565b5b6127ce848285612785565b509392505050565b600082601f8301126127eb576127ea6126cf565b5b81356127fb848260208601612794565b91505092915050565b6000806000806080858703121561281e5761281d612363565b5b600061282c878288016125b0565b945050602085013567ffffffffffffffff81111561284d5761284c612368565b5b612859878288016127d6565b935050604085013567ffffffffffffffff81111561287a57612879612368565b5b612886878288016127d6565b925050606085013567ffffffffffffffff8111156128a7576128a6612368565b5b6128b3878288016127d6565b91505092959194509250565b60006020820190506128d46000830184612658565b92915050565b6000602082840312156128f0576128ef612363565b5b60006128fe848285016125b0565b91505092915050565b600082825260208201905092915050565b600061292382612428565b61292d8185612907565b935061293d818560208601612444565b6129468161246e565b840191505092915050565b61295a816124da565b82525050565b612969816123f2565b82525050565b600060a083016000830151848203600086015261298c8282612918565b915050602083015184820360208601526129a68282612918565b915050604083015184820360408601526129c08282612918565b91505060608301516129d56060860182612951565b5060808301516129e86080860182612960565b508091505092915050565b60006020820190508181036000830152612a0d818461296f565b905092915050565b612a1e816123f2565b8114612a2957600080fd5b50565b600081359050612a3b81612a15565b92915050565b60008060408385031215612a5857612a57612363565b5b6000612a66858286016125b0565b9250506020612a7785828601612a2c565b9150509250929050565b600067ffffffffffffffff821115612a9c57612a9b6126d9565b5b612aa58261246e565b9050602081019050919050565b6000612ac5612ac084612a81565b612739565b905082815260208101848484011115612ae157612ae06126d4565b5b612aec848285612785565b509392505050565b600082601f830112612b0957612b086126cf565b5b8135612b19848260208601612ab2565b91505092915050565b60008060008060808587031215612b3c57612b3b612363565b5b6000612b4a878288016125b0565b9450506020612b5b878288016125b0565b9350506040612b6c878288016124fb565b925050606085013567ffffffffffffffff811115612b8d57612b8c612368565b5b612b9987828801612af4565b91505092959194509250565b60008060408385031215612bbc57612bbb612363565b5b6000612bca858286016125b0565b9250506020612bdb858286016125b0565b9150509250929050565b7f4e487b7100000000000000000000000000000000000000000000000000000000600052602260045260246000fd5b60006002820490506001821680612c2c57607f821691505b602082108103612c3f57612c3e612be5565b5b50919050565b6000606082019050612c5a600083018661256f565b612c676020830185612658565b612c74604083018461256f565b949350505050565b7f52656769737472617220616c726561647920686173206120726f6c6520746f6b60008201527f656e000000000000000000000000000000000000000000000000000000000000602082015250565b6000612cd8602283612433565b9150612ce382612c7c565b604082019050919050565b60006020820190508181036000830152612d0781612ccb565b9050919050565b7f4e487b7100000000000000000000000000000000000000000000000000000000600052601160045260246000fd5b6000612d48826124da565b91507fffffffffffffffffffffffffffffffffffffffffffffffffffffffffffffffff8203612d7a57612d79612d0e565b5b600182019050919050565b60008190508160005260206000209050919050565b60006020601f8301049050919050565b600082821b905092915050565b600060088302612de77fffffffffffffffffffffffffffffffffffffffffffffffffffffffffffffffff82612daa565b612df18683612daa565b95508019841693508086168417925050509392505050565b6000819050919050565b6000612e2e612e29612e24846124da565b612e09565b6124da565b9050919050565b6000819050919050565b612e4883612e13565b612e5c612e5482612e35565b848454612db7565b825550505050565b600090565b612e71612e64565b612e7c818484612e3f565b505050565b5b81811015612ea057612e95600082612e69565b600181019050612e82565b5050565b601f821115612ee557612eb681612d85565b612ebf84612d9a565b81016020851015612ece578190505b612ee2612eda85612d9a565b830182612e81565b50505b505050565b600082821c905092915050565b6000612f0860001984600802612eea565b1980831691505092915050565b6000612f218383612ef7565b9150826002028217905092915050565b612f3a82612428565b67ffffffffffffffff811115612f5357612f526126d9565b5b612f5d8254612c14565b612f68828285612ea4565b600060209050601f831160018114612f9b5760008415612f89578287015190505b612f938582612f15565b865550612ffb565b601f198416612fa986612d85565b60005b82811015612fd157848901518255600182019150602085019450602081019050612fac565b86831015612fee5784890151612fea601f891682612ef7565b8355505b6001600288020188555050505b505050505050565b60006040820190506130186000830185612658565b818103602083015261302a818461247f565b90509392505050565b7f4e6f742061207265676973747261720000000000000000000000000000000000600082015250565b6000613069600f83612433565b915061307482613033565b602082019050919050565b600060208201905081810360008301526130988161305c565b9050919050565b7f52656769737472617220686173206e6f20726f6c6520746f6b656e0000000000600082015250565b60006130d5601b83612433565b91506130e08261309f565b602082019050919050565b60006020820190508181036000830152613104816130c8565b9050919050565b600081905092915050565b600061312182612428565b61312b818561310b565b935061313b818560208601612444565b80840191505092915050565b60006131538285613116565b915061315f8284613116565b91508190509392505050565b7f526567697374726172526f6c65546f6b656e3a20746f6b656e732063616e6e6f60008201527f74206265207472616e7366657272656400000000000000000000000000000000602082015250565b60006131c7603083612433565b91506131d28261316b565b604082019050919050565b600060208201905081810360008301526131f6816131ba565b9050919050565b600081519050919050565b600082825260208201905092915050565b6000613224826131fd565b61322e8185613208565b935061323e818560208601612444565b6132478161246e565b840191505092915050565b6000608082019050613267600083018761256f565b613274602083018661256f565b6132816040830185612658565b81810360608301526132938184613219565b905095945050505050565b6000815190506132ad81612399565b92915050565b6000602082840312156132c9576132c8612363565b5b60006132d78482850161329e565b91505092915050565b7f4e487b7100000000000000000000000000000000000000000000000000000000600052601260045260246000fd5b6000604082019050613324600083018561256f565b6133316020830184612658565b939250505056fea2646970667358221220ae693316d46be468823a6c0e29ea122669cabce04c5d763fe6bef05b28751c7764736f6c63430008140033",
  "linkReferences": {},
  "deployedLinkReferences": {}
}